:100C0A00120CB1120C4EE4F511F510750FF0750EB9
:0F0C1A0041FFFE7D707C42120C29120AF980FB0B
:100C29001209E48F18AF11AE10AD0FAC0E1209E422
:030C39008F1922EE
:100C4E00438901758A9B758CFFD28CD2A9D2AF22B3
:090C8400D2A4C2A3D2A2C2A12293
:090C8D00C2A4D2A3D2A2C2A1228A
:090C9600D2A4C2A3C2A2D2A12281
:090C9F00C2A4C2A3C2A2C2A12298
:090CA800C2A4D2A3C2A2D2A1226F
:03000B00020B4C99
:040B4C00C0E0C0D075
:100B5000758A38758CFF05080509E508C395185096
:100B600004D2A5800CC2A5E508C3946440037508AF
:100B700000E509C395195004D2A0800CC2A0E50974
:080B8000C394644003750900F1
:050B8800D0D0D0E032E6
:060C3C00AE071FEE600B85
:0B0C4200751A02151AE51A60F180F81F
:010C4D002284
:100BCA00E4FDFCC3ED9FEC9E5015E4FAFB0BBB0061
:0F0BDA00010AEB647B4A70F50DBD00010C80E44D
:010BE90022E9
:100BEA00E4FDFCC3ED9FEC9E5015E4FAFB0BBB0041
:0F0BFA00010ABA54F8BBEAF50DBD00010C80E406
:010C090022C8
:100AF900439007209308309205209102804120936A
:100B0900062092032091092093093092063091031F
:100B1900020C8D30930630920330910930930920ED
:100B29009206209103020C962093082092052091A9
:100B390002800C309309309206309103020C9F1207
:030B49000C8422F7
:100C5E0053890F438910E4F58DF58BD2ABD2AF22B9
:070CB100C295C296020C5E21
:0A0C7A00D2967F02120C3CC29622B3
:100B8D003095FDD28E2095FDC28EAF8CEFFEAD8AD5
:100B9D007C00E42DFFEC3EFEE4F58DF58BAD07AC4E
:100BAD00061209AB7B9A7A9979D9783F120800E43D
:0C0BBD00FBFA79C878421209091209E419
:010BC9002209
:100A7300120B8D8E168F17C3E5179414E516940089
:100A83005068120C9F7F2C7E01120BCA120C8D7FB3
:100A9300F47E01120BCA120B8D8E168F1785161258
:100AA300851713120C967FE87E03120BCA120B8D67
:100AB3008E168F17851614851715120C8D7FF47EED
:100AC30001120BCA120CA87FC87E00120BCAD3E511
:100AD300139515E51295144005120C8D8003120C25
:100AE300967FF47E01120BCA8003120C847F647E0E
:060AF30000120BCA808115
:10080000EC4D6011E8497017ED33EC3304600DE4F2
:10081000FCFFFEFD22E933E8330470F8020A5012AF
:100820000A1B58046009E4CC2481500628500902B0
:100830000A5A284003020A57C0E0EB4A7044B980C4
:1008400006D0E0FB020A46EF4E701CBD8008EBFFAD
:10085000EAFEE9FD80EBE98DF0A4FEE5F00208E98F
:10086000E9CDF9EAFEEBFFEF89F0A4FCE5F0CE89D3
:10087000F0A42EFFE435F0CD89F0A42DFEE435F090
:100880008067EF4E7005BD80D780C3EF8BF0A4ACBE
:10089000F0EE8BF0A42CFCE435F0F8EF8AF0A42CF9
:1008A000E5F038FCE433CB8DF0A42CFCE5F03BF80C
:1008B000EE8AF0A42CFCE5F038F8E433CF89F0A4FC
:1008C0002CFCE5F038CF3400CE89F0A42FFFE5F002
:1008D0003EFEE433C98DF0A42EFEE5F039CD8AF05A
:1008E000A42FFFE5F03EFEE43DFD33D0E0FB5007D2
:1008F0000BBB000F020A5AEC2CFCEF33FFEE33FE69
:06090000ED33FD020A3296
:10090600020A5AEC5D046005E859047003020A50B5
:10091600120A1B580460F6EC4860F2EC7004FDFE07
:10092600FF22C860DB2481C85009C39860025006C4
:10093600020A579850CAF582E9294B4A7005AB82DC
:10094600020A4675F0007C1A7880C3EF9BEE9AED9A
:1009560099400DC3EF9BFFEE9AFEED99FDE842F03C
:10096600DC23ACF0D0E0FFD0E0FED0E0FDAB82208F
:10097600E7101BEB60BAEC2CFCEF33FFEE33FEED19
:1009860033FD020A32E803F830E705C0F075F000DF
:10099600EF2FFFEE33FEED33FD40B830E7C280AAFD
:1009A60075F020800E75F010800575F0087D007ECC
:1009B600007F003392D530D503120A65EC33401020
:1009C600EF33FFEE33FEED33FDEC33FCD5F0ED22D5
:0E09D600E5F0247EA2D513CC92E7CDCEFF2211
:1009E400EDD2E7CD33EC3392D524814006E4FFFE0B
:1009F400FDFC22FCE4CFCECDCC24E0501174FF806A
:100A0400EDC3CC13CCCD13CDCE13CECF13CF047006
:070A1400F030D5DE020A6597
:100A1B00E9D2E7C933E833F892D5EDD2E7CD33EC21
:070A2B0033FC5002B2D5229A
:100A3200EC30E7100FBF000C0EBE00080DBD000425
:100A42000BEB6014A2D5EB13FCED92E7FD2274FFD1
:100A5200FCFDFEFF22E480F8A2D574FF13FC7D802A
:030A6200E480EF3E
:03000000020C6E81
:0C0C6E00787FE4F6D8FD75811A020C0AAC
:0E0A6500C3E49FFFE49EFEE49DFDE49CFC22A2
:00000001FF
